{
	"data": {
		"bytecode": {
			"linkReferences": {},
			"object": "608060405260008060016101000a81548160ff0219169083600381111561002957610028610040565b5b021790555034801561003a57600080fd5b5061006f565b7f4e487b7100000000000000000000000000000000000000000000000000000000600052602160045260246000fd5b6104598061007e6000396000f3fe608060405234801561001057600080fd5b50600436106100935760003560e01c8063310fc42a11610066578063310fc42a146100d2578063708311d1146100f0578063964d39ca146100fa578063b7a060a314610118578063e9073c331461013457610093565b80630b7812ce1461009857806317d57279146100a25780632b38329b146100ac5780633064b1f7146100c8575b600080fd5b6100a061013e565b005b6100aa61016a565b005b6100c660048036038101906100c191906102db565b610197565b005b6100d06101d5565b005b6100da610202565b6040516100e79190610326565b60405180910390f35b6100f8610218565b005b610102610245565b60405161010f9190610341565b60405180910390f35b610132600480360381019061012d91906102db565b61025b565b005b61013c61029a565b005b60008060016101000a81548160ff02191690836003811115610163576101626103b0565b5b0217905550565b6001600060016101000a81548160ff021916908360038111156101905761018f6103b0565b5b0217905550565b8060018111156101aa576101a96103b0565b5b6000806101000a81548160ff021916908360018111156101cd576101cc6103b0565b5b021790555050565b6003600060016101000a81548160ff021916908360038111156101fb576101fa6103b0565b5b0217905550565b60008060019054906101000a900460ff16905090565b6002600060016101000a81548160ff0219169083600381111561023e5761023d6103b0565b5b0217905550565b60008060009054906101000a900460ff16905090565b80600381111561026e5761026d6103b0565b5b600060016101000a81548160ff02191690836003811115610292576102916103b0565b5b021790555050565b60008060006101000a81548160ff021916908360018111156102bf576102be6103b0565b5b0217905550565b6000813590506102d58161040c565b92915050565b6000602082840312156102f1576102f06103df565b5b60006102ff848285016102c6565b91505092915050565b6103118161038c565b82525050565b6103208161039e565b82525050565b600060208201905061033b6000830184610308565b92915050565b60006020820190506103566000830184610317565b92915050565b600081905061036a826103e4565b919050565b600081905061037d826103f8565b919050565b6000819050919050565b60006103978261035c565b9050919050565b60006103a98261036f565b9050919050565b7f4e487b7100000000000000000000000000000000000000000000000000000000600052602160045260246000fd5b600080fd5b600481106103f5576103f46103b0565b5b50565b60028110610409576104086103b0565b5b50565b61041581610382565b811461042057600080fd5b5056fea2646970667358221220a36f4055fc45add6f6b4349c155cd551cb9d763586f2e6ef94f356e40938d9fe64736f6c63430008070033",
			"opcodes": "PUSH1 0x80 PUSH1 0x40 MSTORE PUSH1 0x0 DUP1 PUSH1 0x1 PUSH2 0x100 EXP DUP2 SLOAD DUP2 PUSH1 0xFF MUL NOT AND SWAP1 DUP4 PUSH1 0x3 DUP2 GT ISZERO PUSH2 0x29 JUMPI PUSH2 0x28 PUSH2 0x40 JUMP JUMPDEST JUMPDEST MUL OR SWAP1 SSTORE POP CALLVALUE DUP1 ISZERO PUSH2 0x3A JUMPI PUSH1 0x0 DUP1 REVERT JUMPDEST POP PUSH2 0x6F JUMP JUMPDEST PUSH32 0x4E487B7100000000000000000000000000000000000000000000000000000000 PUSH1 0x0 MSTORE PUSH1 0x21 PUSH1 0x4 MSTORE PUSH1 0x24 PUSH1 0x0 REVERT JUMPDEST PUSH2 0x459 DUP1 PUSH2 0x7E PUSH1 0x0 CODECOPY PUSH1 0x0 RETURN INVALID PUSH1 0x80 PUSH1 0x40 MSTORE CALLVALUE DUP1 ISZERO PUSH2 0x10 JUMPI PUSH1 0x0 DUP1 REVERT JUMPDEST POP PUSH1 0x4 CALLDATASIZE LT PUSH2 0x93 JUMPI PUSH1 0x0 CALLDATALOAD PUSH1 0xE0 SHR DUP1 PUSH4 0x310FC42A GT PUSH2 0x66 JUMPI DUP1 PUSH4 0x310FC42A EQ PUSH2 0xD2 JUMPI DUP1 PUSH4 0x708311D1 EQ PUSH2 0xF0 JUMPI DUP1 PUSH4 0x964D39CA EQ PUSH2 0xFA JUMPI DUP1 PUSH4 0xB7A060A3 EQ PUSH2 0x118 JUMPI DUP1 PUSH4 0xE9073C33 EQ PUSH2 0x134 JUMPI PUSH2 0x93 JUMP JUMPDEST DUP1 PUSH4 0xB7812CE EQ PUSH2 0x98 JUMPI DUP1 PUSH4 0x17D57279 EQ PUSH2 0xA2 JUMPI DUP1 PUSH4 0x2B38329B EQ PUSH2 0xAC JUMPI DUP1 PUSH4 0x3064B1F7 EQ PUSH2 0xC8 JUMPI JUMPDEST PUSH1 0x0 DUP1 REVERT JUMPDEST PUSH2 0xA0 PUSH2 0x13E JUMP JUMPDEST STOP JUMPDEST PUSH2 0xAA PUSH2 0x16A JUMP JUMPDEST STOP JUMPDEST PUSH2 0xC6 PUSH1 0x4 DUP1 CALLDATASIZE SUB DUP2 ADD SWAP1 PUSH2 0xC1 SWAP2 SWAP1 PUSH2 0x2DB JUMP JUMPDEST PUSH2 0x197 JUMP JUMPDEST STOP JUMPDEST PUSH2 0xD0 PUSH2 0x1D5 JUMP JUMPDEST STOP JUMPDEST PUSH2 0xDA PUSH2 0x202 JUMP JUMPDEST PUSH1 0x40 MLOAD PUSH2 0xE7 SWAP2 SWAP1 PUSH2 0x326 JUMP JUMPDEST PUSH1 0x40 MLOAD DUP1 SWAP2 SUB SWAP1 RETURN JUMPDEST PUSH2 0xF8 PUSH2 0x218 JUMP JUMPDEST STOP JUMPDEST PUSH2 0x102 PUSH2 0x245 JUMP JUMPDEST PUSH1 0x40 MLOAD PUSH2 0x10F SWAP2 SWAP1 PUSH2 0x341 JUMP JUMPDEST PUSH1 0x40 MLOAD DUP1 SWAP2 SUB SWAP1 RETURN JUMPDEST PUSH2 0x132 PUSH1 0x4 DUP1 CALLDATASIZE SUB DUP2 ADD SWAP1 PUSH2 0x12D SWAP2 SWAP1 PUSH2 0x2DB JUMP JUMPDEST PUSH2 0x25B JUMP JUMPDEST STOP JUMPDEST PUSH2 0x13C PUSH2 0x29A JUMP JUMPDEST STOP JUMPDEST PUSH1 0x0 DUP1 PUSH1 0x1 PUSH2 0x100 EXP DUP2 SLOAD DUP2 PUSH1 0xFF MUL NOT AND SWAP1 DUP4 PUSH1 0x3 DUP2 GT ISZERO PUSH2 0x163 JUMPI PUSH2 0x162 PUSH2 0x3B0 JUMP JUMPDEST JUMPDEST MUL OR SWAP1 SSTORE POP JUMP JUMPDEST PUSH1 0x1 PUSH1 0x0 PUSH1 0x1 PUSH2 0x100 EXP DUP2 SLOAD DUP2 PUSH1 0xFF MUL NOT AND SWAP1 DUP4 PUSH1 0x3 DUP2 GT ISZERO PUSH2 0x190 JUMPI PUSH2 0x18F PUSH2 0x3B0 JUMP JUMPDEST JUMPDEST MUL OR SWAP1 SSTORE POP JUMP JUMPDEST DUP1 PUSH1 0x1 DUP2 GT ISZERO PUSH2 0x1AA JUMPI PUSH2 0x1A9 PUSH2 0x3B0 JUMP JUMPDEST JUMPDEST PUSH1 0x0 DUP1 PUSH2 0x100 EXP DUP2 SLOAD DUP2 PUSH1 0xFF MUL NOT AND SWAP1 DUP4 PUSH1 0x1 DUP2 GT ISZERO PUSH2 0x1CD JUMPI PUSH2 0x1CC PUSH2 0x3B0 JUMP JUMPDEST JUMPDEST MUL OR SWAP1 SSTORE POP POP JUMP JUMPDEST PUSH1 0x3 PUSH1 0x0 PUSH1 0x1 PUSH2 0x100 EXP DUP2 SLOAD DUP2 PUSH1 0xFF MUL NOT AND SWAP1 DUP4 PUSH1 0x3 DUP2 GT ISZERO PUSH2 0x1FB JUMPI PUSH2 0x1FA PUSH2 0x3B0 JUMP JUMPDEST JUMPDEST MUL OR SWAP1 SSTORE POP JUMP JUMPDEST PUSH1 0x0 DUP1 PUSH1 0x1 SWAP1 SLOAD SWAP1 PUSH2 0x100 EXP SWAP1 DIV PUSH1 0xFF AND SWAP1 POP SWAP1 JUMP JUMPDEST PUSH1 0x2 PUSH1 0x0 PUSH1 0x1 PUSH2 0x100 EXP DUP2 SLOAD DUP2 PUSH1 0xFF MUL NOT AND SWAP1 DUP4 PUSH1 0x3 DUP2 GT ISZERO PUSH2 0x23E JUMPI PUSH2 0x23D PUSH2 0x3B0 JUMP JUMPDEST JUMPDEST MUL OR SWAP1 SSTORE POP JUMP JUMPDEST PUSH1 0x0 DUP1 PUSH1 0x0 SWAP1 SLOAD SWAP1 PUSH2 0x100 EXP SWAP1 DIV PUSH1 0xFF AND SWAP1 POP SWAP1 JUMP JUMPDEST DUP1 PUSH1 0x3 DUP2 GT ISZERO PUSH2 0x26E JUMPI PUSH2 0x26D PUSH2 0x3B0 JUMP JUMPDEST JUMPDEST PUSH1 0x0 PUSH1 0x1 PUSH2 0x100 EXP DUP2 SLOAD DUP2 PUSH1 0xFF MUL NOT AND SWAP1 DUP4 PUSH1 0x3 DUP2 GT ISZERO PUSH2 0x292 JUMPI PUSH2 0x291 PUSH2 0x3B0 JUMP JUMPDEST JUMPDEST MUL OR SWAP1 SSTORE POP POP JUMP JUMPDEST PUSH1 0x0 DUP1 PUSH1 0x0 PUSH2 0x100 EXP DUP2 SLOAD DUP2 PUSH1 0xFF MUL NOT AND SWAP1 DUP4 PUSH1 0x1 DUP2 GT ISZERO PUSH2 0x2BF JUMPI PUSH2 0x2BE PUSH2 0x3B0 JUMP JUMPDEST JUMPDEST MUL OR SWAP1 SSTORE POP JUMP JUMPDEST PUSH1 0x0 DUP2 CALLDATALOAD SWAP1 POP PUSH2 0x2D5 DUP2 PUSH2 0x40C JUMP JUMPDEST SWAP3 SWAP2 POP POP JUMP JUMPDEST PUSH1 0x0 PUSH1 0x20 DUP3 DUP5 SUB SLT ISZERO PUSH2 0x2F1 JUMPI PUSH2 0x2F0 PUSH2 0x3DF JUMP JUMPDEST JUMPDEST PUSH1 0x0 PUSH2 0x2FF DUP5 DUP3 DUP6 ADD PUSH2 0x2C6 JUMP JUMPDEST SWAP2 POP POP SWAP3 SWAP2 POP POP JUMP JUMPDEST PUSH2 0x311 DUP2 PUSH2 0x38C JUMP JUMPDEST DUP3 MSTORE POP POP JUMP JUMPDEST PUSH2 0x320 DUP2 PUSH2 0x39E JUMP JUMPDEST DUP3 MSTORE POP POP JUMP JUMPDEST PUSH1 0x0 PUSH1 0x20 DUP3 ADD SWAP1 POP PUSH2 0x33B PUSH1 0x0 DUP4 ADD DUP5 PUSH2 0x308 JUMP JUMPDEST SWAP3 SWAP2 POP POP JUMP JUMPDEST PUSH1 0x0 PUSH1 0x20 DUP3 ADD SWAP1 POP PUSH2 0x356 PUSH1 0x0 DUP4 ADD DUP5 PUSH2 0x317 JUMP JUMPDEST SWAP3 SWAP2 POP POP JUMP JUMPDEST PUSH1 0x0 DUP2 SWAP1 POP PUSH2 0x36A DUP3 PUSH2 0x3E4 JUMP JUMPDEST SWAP2 SWAP1 POP JUMP JUMPDEST PUSH1 0x0 DUP2 SWAP1 POP PUSH2 0x37D DUP3 PUSH2 0x3F8 JUMP JUMPDEST SWAP2 SWAP1 POP JUMP JUMPDEST PUSH1 0x0 DUP2 SWAP1 POP SWAP2 SWAP1 POP JUMP JUMPDEST PUSH1 0x0 PUSH2 0x397 DUP3 PUSH2 0x35C JUMP JUMPDEST SWAP1 POP SWAP2 SWAP1 POP JUMP JUMPDEST PUSH1 0x0 PUSH2 0x3A9 DUP3 PUSH2 0x36F JUMP JUMPDEST SWAP1 POP SWAP2 SWAP1 POP JUMP JUMPDEST PUSH32 0x4E487B7100000000000000000000000000000000000000000000000000000000 PUSH1 0x0 MSTORE PUSH1 0x21 PUSH1 0x4 MSTORE PUSH1 0x24 PUSH1 0x0 REVERT JUMPDEST PUSH1 0x0 DUP1 REVERT JUMPDEST PUSH1 0x4 DUP2 LT PUSH2 0x3F5 JUMPI PUSH2 0x3F4 PUSH2 0x3B0 JUMP JUMPDEST JUMPDEST POP JUMP JUMPDEST PUSH1 0x2 DUP2 LT PUSH2 0x409 JUMPI PUSH2 0x408 PUSH2 0x3B0 JUMP JUMPDEST JUMPDEST POP JUMP JUMPDEST PUSH2 0x415 DUP2 PUSH2 0x382 JUMP JUMPDEST DUP2 EQ PUSH2 0x420 JUMPI PUSH1 0x0 DUP1 REVERT JUMPDEST POP JUMP INVALID LOG2 PUSH5 0x6970667358 0x22 SLT KECCAK256 LOG3 PUSH16 0x4055FC45ADD6F6B4349C155CD551CB9D PUSH23 0x3586F2E6EF94F356E40938D9FE64736F6C634300080700 CALLER "
		},
		"gasEstimates": {
			"creation": {
				"codeDepositCost": "222600",
				"executionCost": "24612",
				"totalCost": "247212"
			},
			"external": {
				"abajo_function()": "24504",
				"arriba_function()": "24482",
				"derecha_function()": "24503",
				"direcciones_function()": "2618",
				"encender()": "24519",
				"estado_function()": "2612",
				"fijar_direcciones(uint256)": "24835",
				"fijar_estado(uint256)": "24764",
				"izquierda_function()": "24548"
			}
		},
		"methodIdentifiers": {
			"abajo_function()": "17d57279",
			"arriba_function()": "0b7812ce",
			"derecha_function()": "708311d1",
			"direcciones_function()": "310fc42a",
			"encender()": "e9073c33",
			"estado_function()": "964d39ca",
			"fijar_direcciones(uint256)": "b7a060a3",
			"fijar_estado(uint256)": "2b38329b",
			"izquierda_function()": "3064b1f7"
		}
	},
	"abi": [
		{
			"inputs": [],
			"name": "abajo_function",
			"outputs": [],
			"stateMutability": "nonpayable",
			"type": "function"
		},
		{
			"inputs": [],
			"name": "arriba_function",
			"outputs": [],
			"stateMutability": "nonpayable",
			"type": "function"
		},
		{
			"inputs": [],
			"name": "derecha_function",
			"outputs": [],
			"stateMutability": "nonpayable",
			"type": "function"
		},
		{
			"inputs": [],
			"name": "direcciones_function",
			"outputs": [
				{
					"internalType": "enum ejemplo_enumeracion.direcciones",
					"name": "",
					"type": "uint8"
				}
			],
			"stateMutability": "view",
			"type": "function"
		},
		{
			"inputs": [],
			"name": "encender",
			"outputs": [],
			"stateMutability": "nonpayable",
			"type": "function"
		},
		{
			"inputs": [],
			"name": "estado_function",
			"outputs": [
				{
					"internalType": "enum ejemplo_enumeracion.estado",
					"name": "",
					"type": "uint8"
				}
			],
			"stateMutability": "view",
			"type": "function"
		},
		{
			"inputs": [
				{
					"internalType": "uint256",
					"name": "_k",
					"type": "uint256"
				}
			],
			"name": "fijar_direcciones",
			"outputs": [],
			"stateMutability": "nonpayable",
			"type": "function"
		},
		{
			"inputs": [
				{
					"internalType": "uint256",
					"name": "_k",
					"type": "uint256"
				}
			],
			"name": "fijar_estado",
			"outputs": [],
			"stateMutability": "nonpayable",
			"type": "function"
		},
		{
			"inputs": [],
			"name": "izquierda_function",
			"outputs": [],
			"stateMutability": "nonpayable",
			"type": "function"
		}
	]
}