{
	"data": {
		"bytecode": {
			"linkReferences": {},
			"object": "608060405234801561001057600080fd5b5060c78061001f6000396000f3fe6080604052348015600f57600080fd5b506004361060325760003560e01c8063e0be4a2e146037578063e9073c33146062575b600080fd5b606060048036036020811015604b57600080fd5b8101908080359060200190929190505050606a565b005b6068606d565b005b50565b60008060006101000a81548160ff02191690836001811115608a57fe5b021790555056fea264697066735822122075898efa3b16645a64f1da061803fcabecbd40d9d48a9f36ec10b68f55ee76c364736f6c634300060c0033",
			"opcodes": "PUSH1 0x80 PUSH1 0x40 MSTORE CALLVALUE DUP1 ISZERO PUSH2 0x10 JUMPI PUSH1 0x0 DUP1 REVERT JUMPDEST POP PUSH1 0xC7 DUP1 PUSH2 0x1F PUSH1 0x0 CODECOPY PUSH1 0x0 RETURN INVALID PUSH1 0x80 PUSH1 0x40 MSTORE CALLVALUE DUP1 ISZERO PUSH1 0xF JUMPI PUSH1 0x0 DUP1 REVERT JUMPDEST POP PUSH1 0x4 CALLDATASIZE LT PUSH1 0x32 JUMPI PUSH1 0x0 CALLDATALOAD PUSH1 0xE0 SHR DUP1 PUSH4 0xE0BE4A2E EQ PUSH1 0x37 JUMPI DUP1 PUSH4 0xE9073C33 EQ PUSH1 0x62 JUMPI JUMPDEST PUSH1 0x0 DUP1 REVERT JUMPDEST PUSH1 0x60 PUSH1 0x4 DUP1 CALLDATASIZE SUB PUSH1 0x20 DUP2 LT ISZERO PUSH1 0x4B JUMPI PUSH1 0x0 DUP1 REVERT JUMPDEST DUP2 ADD SWAP1 DUP1 DUP1 CALLDATALOAD SWAP1 PUSH1 0x20 ADD SWAP1 SWAP3 SWAP2 SWAP1 POP POP POP PUSH1 0x6A JUMP JUMPDEST STOP JUMPDEST PUSH1 0x68 PUSH1 0x6D JUMP JUMPDEST STOP JUMPDEST POP JUMP JUMPDEST PUSH1 0x0 DUP1 PUSH1 0x0 PUSH2 0x100 EXP DUP2 SLOAD DUP2 PUSH1 0xFF MUL NOT AND SWAP1 DUP4 PUSH1 0x1 DUP2 GT ISZERO PUSH1 0x8A JUMPI INVALID JUMPDEST MUL OR SWAP1 SSTORE POP JUMP INVALID LOG2 PUSH5 0x6970667358 0x22 SLT KECCAK256 PUSH22 0x898EFA3B16645A64F1DA061803FCABECBD40D9D48A9F CALLDATASIZE 0xEC LT 0xB6 DUP16 SSTORE 0xEE PUSH23 0xC364736F6C634300060C00330000000000000000000000 "
		},
		"gasEstimates": {
			"creation": {
				"codeDepositCost": "39800",
				"executionCost": "93",
				"totalCost": "39893"
			},
			"external": {
				"encender()": "21031",
				"fijarEstado(uint256)": "206"
			}
		},
		"methodIdentifiers": {
			"encender()": "e9073c33",
			"fijarEstado(uint256)": "e0be4a2e"
		}
	},
	"abi": [
		{
			"inputs": [],
			"name": "encender",
			"outputs": [],
			"stateMutability": "nonpayable",
			"type": "function"
		},
		{
			"inputs": [
				{
					"internalType": "uint256",
					"name": "_k",
					"type": "uint256"
				}
			],
			"name": "fijarEstado",
			"outputs": [],
			"stateMutability": "nonpayable",
			"type": "function"
		}
	]
}